:100000000C94B8040C94E2040C94E2040C94E20402
:100010000C94E2040C94E2040C94E2040C94E204C8
:100020000C94E2040C94E2040C94E2040C94E204B8
:100030000C94E2040C94E2040C94E2040C94E204A8
:100040000C94E2040C94E2040C949D1E0C94E204C3
:100050000C94AB0A0C94FD0A0C94E2040C94E20498
:100060000C94E2040C94E2040C94AD350C94E2047C
:100070000C94D40A0C94260B0C94E2040C94E20425
:100080000C94E2040C94E2040C94E2044372656163
:100090007465642025730A002E54585400626C69FC
:1000A0006E6B5F6572726F722025640A00657272F2
:1000B0006F72206372656174696E672025730A0030
:1000C0005345514C4F4730302E54585400437265BD
:1000D000617465642025730A004C4F4725303564F0
:1000E0002E54585400546F6F206D616E79206C6FE0
:1000F0006773210A0072656D6F76656400696E73BF
:100100006572746564006361726420006572726F69
:1001100072206F70656E526F6F740A006572726F35
:100120007220766F6C756D652E696E69740A006554
:1001300072726F7220636172642E696E69740A0054
:1001400072657365743A005344206572726F723A37
:10015000203078257820307825780A006572726F13
:10016000723A2025730A00636172642073697A65AC
:100170003A20256C75204B420A0072656164435336
:1001800044206661696C65640A004D616E75666144
:1001900063747572696E6720646174653A202564C2
:1001A0002F25640A0073657269616C206E756D623B
:1001B00065723A20256C750A0076657273696F6EF8
:1001C0003A2025642E25640A0070726F647563748A
:1001D0003A20256325632563256325630A004F457F
:1001E0004D2069643A20256325630A006D616E75B0
:1001F00066616374757265722069643A2025780AB5
:100200000072656164434944206661696C65640AF3
:1002100000256400534448430053443200534431A2
:10022000006361726420747970653A200020256C47
:100230007500253032643A253032643A2530326414
:1002400000253034642D253032642D253032640091
:10025000226361742209646973706C617920612082
:1002600066696C650A226C7322096C697374206676
:10027000696C65730A22726D220972656D6F76650D
:1002800020612066696C650A2273796E63220973A6
:10029000796E632066696C6520616E6420646972A2
:1002A0006563746F72790A227A65726F22097A65C2
:1002B000726F206E65777365710A2764270964651C
:1002C000627567206C6576656C0A27652709656528
:1002D00070726F6D20636D640A2772270952414D59
:1002E000206C6566740A27522709736F6674207242
:1002F000657365740A2773270973686F770A275334
:10030000270963617264207374617475730A2774BA
:1003100027095254430A2754270974696D652073CD
:10032000696E636520626F6F740A275627097665C8
:100330007273696F6E0A2768270968656C700A0016
:100340006E6F742070726573656E74007072657381
:10035000656E7400636172642069732000636C656C
:10036000616E0064697274790066696C6573797393
:1003700074656D20697320006F6B006572726F7217
:10038000006C6F67676572207374617475732069A0
:1003900073200020444952545900204552524F5274
:1003A000007374617475733A006C6F677365713AAA
:1003B0002025640A00476F6F64627965210A002076
:1003C00072616D206C6566743A202535750A00648B
:1003D0006174612073697A653A202535640A0020CA
:1003E0006273732073697A653A202535640A0020A8
:1003F00072616D2073697A653A202535640A002898
:1004000070726F676D656D293A202535750A007425
:10041000657874206C6566743A202535750A007419
:1004200065787420757365643A202535750A007403
:100430006578742073697A653A202535750A0064F9
:10044000656275673A2025640A0066696C652E73DB
:10045000796E632829206661696C65640A006669A3
:100460006C652E73796E632829206661696C6564FA
:100470000A0073796E63007A65726F00726D2025D1
:1004800073206661696C65640A0043616E2774209D
:1004900072656D6F7665206469726563746F7279D9
:1004A0000A0043616E2774206F70656E2025730A01
:1004B00000726D00566F6C756D6520697320464142
:1004C000542025640A006C73005C2530336F0043B0
:1004D000616E277420636174206469726563746F50
:1004E00072790A0043616E2774206F70656E202553
:1004F000730A0063617400656570726F6D207570BA
:1005000064617465640A0025356C752073706565D7
:10051000640A002535752064656275670A00253513
:1005200075206C6F677365710A0027657227097201
:1005300065706F72740A2765732709737065656447
:100540000A0076616C6964207370656564733A0AA9
:10055000000204020402040204020E000204020467
:10056000020402140002040204021A00020402201F
:1005700000022600253034642D253032642D2530CC
:10058000326420253032643A253032643A253032E4
:100590006420002774270909646973706C617920ED
:1005A0007468652074696D650A277420483A4D3A6D
:1005B000532709736574207468652074696D650A32
:1005C000277420592D4D2D442709736574207468B4
:1005D0006520646174650A2774202B4E2709096120
:1005E0006464207365636F6E64730A2774202D4EF4
:1005F0002709097375627472616374207365636F90
:100600006E64730A27744427090964756D7020614C
:100610006C6C207265676973746572730A27744F16
:1006200025642709096167696E67206F66667365CF
:10063000740A2774532564270909746F67676C650A
:1006400020382E3139326B487A20737175617265AA
:1006500020776176650A27745427090964697370E5
:100660006C6179207468652074656D706572617461
:100670007572650A0025642E2530326420460A0012
:1006800025642E2530326420430A0030782530322C
:1006900058203078253032580A0020382E3139322F
:1006A0006B487A207371756172652D776176650A82
:1006B0000064697361626C656400656E61626C659B
:1006C00064002C20307825580A002C2025642E2523
:1006D0003032642070706D006167696E67206F66EC
:1006E000667365743A20256C640076616C756520CC
:1006F0006D757374206265202B3132372F2D3132A6
:10070000380A007274633A200020253032580020E5
:10071000202020005741524E494E473A2025642060
:10072000646179206C6F73740A0070617273656420
:10073000202563253032643A253032643A25303240
:10074000640A0043616E27742068616E646C6520E2
:100750006D6F7265207468616E2031206461790A62
:100760000070617273656420253034642D25303249
:10077000642D253032640A0070617273656420252F
:100780003032643A253032643A253032640A00252A
:100790006C75002020202000082008006E0000005A
:1007A0008600000096000000C80000002C01000038
:1007B00058020000B00400000807000060090000B3
:1007C000C0120000201C00008025000040380000FE
:1007D000004B0000807000000096000000E1000067
:1007E000002C010000C20100008403000008070083
:1007F00020A1070000100E00000000003E006E6FF8
:10080000205254430A003F0A00656570726F6D20E4
:10081000757064617465206661696C65640A006264
:1008200061642076616C75650A003031323334358D
:10083000363738394142434445464748494A4B4C8C
:100840004D4E4F505152535455565758595A0020F7
:100850004A54414700207761746368646F670020E1
:1008600062726F776E2D6F75740020726573657498
:100870000020706F7765722D6F6E00256C752E25C8
:1008800030336C752000253032580073646C6F670C
:1008900067657220332E332E3136342C2061746D0F
:1008A000656761313238347020402031342E37345E
:1008B0003536204D487A2C20756172743020256CB5
:1008C0007520626175642C2055415254305F534944
:1008D0005A453D383139320A00000000010200005B
:1008E00000000000000403080700000000000000F2
:1008F0000000000000000000000102040810204079
:1009000080010204081020408001020408102040E9
:10091000808040201008040201020202020202024A
:100920000204040404040404040303030303030390
:100930000301010101010101010000200023002643
:1009400000290000002200250028002B00000021C3
:1009500000240027002A007C3C3E5E2B3D3F2F5B9D
:100960005D3B2C2A225C00003309D91CC62C0433C1
:1009700011241FBECFEFD0E4DEBFCDBF11E0A0E059
:10098000B1E0E6EFFDE700E00BBF02C007900D927B
:10099000AA38B107D9F726E2AAE8B1E001C01D9252
:1009A000A33CB207E1F714E0C8EBD4E004C0219700
:1009B000FE010E94AF3EC43BD107C9F70E948E1EC4
:1009C0000C943A3A0C94000080E090E008958091F5
:1009D000C00085FFFCCF6093C60081E090E00895E1
:1009E000CF92DF92EF92FF920F931F93CF93DF93FB
:1009F0007C018A01EB016B01C40ED51ECC15DD050F
:100A000051F4C801DF91CF911F910F91FF90EF90AA
:100A1000DF90CF9008956991D701ED91FC910190FD
:100A2000F081E02DC7010995E9CF089581E292E2B6
:100A30000C94130ACF93DF930F92CDB7DEB7BE01AC
:100A40006F5F7F4F81E292E20E947E09811531F053
:100A5000898190E00F90DF91CF9108958FEF9FEF04
:100A6000F9CF81E292E20C946D09EF92FF920F931D
:100A70001F93CF93DF938C017C01E60EF71EEC01F0
:100A8000CE15DF05B0F420912322309124228091ED
:100A90002522909126222817390759F0A7014C1BCF
:100AA0005D0BBE0181E292E20E94CB09C80FD91F03
:100AB000E7CFCE01801B910BDF91CF911F910F915A
:100AC000FF90EF9008950F931F93CF93DF930E94B1
:100AD000E51E60939A0170939B0180939C01909313
:100AE0009D010E947712D091DA23D47082E10E9496
:100AF0002F209C0191E0232B09F090E0D2FB882766
:100B000080F9981709F443C040919A0150919B01D4
:100B100060919C0170919D01009196011091970147
:100B2000209198013091990140175107620773078E
:100B3000B0F1401B510B620B730B41325105610543
:100B4000710528F191E0C82FC92786E091E00E9445
:100B50005D1A8DEF90E0D11511F085EF90E00E94C5
:100B60005D1A0E94F71964E08C2F0E94101D80917D
:100B70009A0190919B01A0919C01B0919D0180935D
:100B8000960190939701A0939801B09399010E94C8
:100B9000FA19DF91CF911F910F910C94B00C415035
:100BA000510961097109C5CF9F938F938CE591E03D
:100BB0009F938F930E94003B8091C0010F900F90F4
:100BC0000F900F90811591F09091C5011F929F9306
:100BD0001F928F9387E491E09F938F930E94003B35
:100BE0000F900F900F900F900F900F9085E00E9444
:100BF0002C120E946305FDCFC82F1F928F938DE9A1
:100C000090E09F938F930E94003B8C2F0E942C12A8
:100C10000F900F900F900F900E946305FDCFCF9320
:100C2000DF93CDB7DEB7A0970FB6F894DEBF0FBE47
:100C3000CDBFAC0126E165EE71E08EE991E00E9446
:100C40008425811104C081E191E00E94D405809146
:100C5000B1019091B201A091B301B091B401892B7F
:100C60008A2B8B2BA9F41092A4011092A50110924B
:100C7000A6011092A7011092A8011092A90110924A
:100C8000AA011092AB0161E08EE991E00E94A423D9
:100C900080E00E94DD1261E080E00E94101DE12CE6
:100CA000F12C03C08FEFE81AF80A00E010E00E9470
:100CB000630560E270E0CE0101960E9435056C018B
:100CC000811591F181E00E94DD1286011127A801B2
:100CD000BE016F5F7F4F8EE991E00E9406275C01A5
:100CE00081E0A016B10609F480E061E00E94101DC9
:100CF000A016B10619F084E00E94FC0582EEE81609
:100D0000F10480F261E08EE991E00E94A423182FA3
:100D100081E0111180E061E00E94101D111559F36E
:100D200080E00E94DD12BBCF053F81E0180791F4FF
:100D300061E08EE991E00E94A423182F81E0111157
:100D400080E061E00E94101D1115A9F280E00E9470
:100D5000DD12ABCF0F5F1F4F61E070E080E090E0ED
:100D60000E94161FA4CFFF920F931F93CF93DF9380
:100D7000CDB7DEB7A0970FB6F894DEBF0FBECDBFDC
:100D800009ED10E080E2F82E809133229091342218
:100D90008E3F2FEF920781F485EE90E00E945D1A5E
:100DA000A0960FB6F894DEBF0FBECDBFDF91CF91F6
:100DB0001F910F91FF9008959F938F931F930F930F
:100DC0001F92FF92CE0101969F938F930E94293B21
:100DD0008091332290913422019690933422809313
:100DE000332222E3AE014F5F5F4F65EE71E08EE983
:100DF00091E00E9484250FB6F894DEBF0FBECDBFF0
:100E0000811511F280E00E943A1187FF04C089E049
:100E100098E00E945D1A8EE991E00E94F623CE01CF
:100E200001969F938F938DEC90E09F938F930E94F8
:100E3000003B8CEF97E00E945D1ACE0101960E9464
:100E40000F060F931F93CF93DF93CDB7DEB7A09715
:100E50000FB6F894DEBF0FBECDBF40E250E060ECAD
:100E600070E08E010F5F1F4FC8010E94603A22E1BF
:100E7000A80165EE71E08EE991E00E948425811160
:100E800017C01F930F938DEA90E09F938F930E945A
:100E9000003B0F900F900F900F90A0960FB6F89414
:100EA000DEBF0FBECDBFDF91CF911F910F9108958F
:100EB0008EE991E00E94F623C8010E940F06BF92BE
:100EC000CF92DF92EF92FF920F931F93CF93DF9316
:100ED000CDB7DEB72D970FB6F894DEBF0FBECDBFEE
:100EE00080910A01282F22952F703AE08F70239F5E
:100EF000800D1124282F90910B0194FB882780F9F5
:100F000081958A70492F4F70840FE0910C014E2F0C
:100F100042954F70EF70F0E0349FE00DF11D112409
:100F20004CE657E097FF02C040ED57E0E40FF51F95
:100F3000EC5BF740FE2FEE27FF0F30E2839FC001EE
:100F40001124822B24E24DE0BE016F5F7F4F7B01B5
:100F50008E2B9F2B0E94341E482F87FD9CC0982FFC
:100F600084E0841B1816ACF4082F10E0042E000C4B
:100F7000550B4F5F5F4FB7018E0D9F2D911D0E9446
:100F8000983AA80160E370E0C7010E94AA3A94E091
:100F900044E08701040F111D47FD1A954DE0B42E62
:100FA000B91A409106013091070190910801892FEB
:100FB00082958F705AE09F70859F900D1124892F24
:100FC00090E0982F8827990F990F990F232F22953A
:100FD0002F703F70259F300D112470E2379F9001D4
:100FE0001124822B932B342F32953F704F70359FF5
:100FF000400D1124342F369524E24B2DB801832B5C
:101000000E94341E87FD47C0282F94E0981B1916B4
:10101000B4F4C92ED12C482F880F550B4F5F5F4F6A
:10102000B8019801290F311DC9010E94983AA60103
:1010300060E370E0C8010E94AA3A24E084E04B2DEE
:10104000421B453044F150E068E970E09801280FF8
:10105000311D87FD3A95C9010E94603A26E1A7013A
:1010600065EE71E08EE991E00E948425811599F08A
:101070008EE991E00E94F623FF92EF928CE890E0D7
:101080009F938F930E94003B8CEF97E00E945D1A24
:10109000C7010E940F062D960FB6F894DEBF0FBE53
:1010A000CDBFDF91CF911F910F91FF90EF90DF9017
:1010B000CF90BF900895CF93DF93CDB7DEB7A097C1
:1010C0000FB6F894DEBF0FBECDBF84B78093DB238D
:1010D00014BE0FB6F894A895809160008861809343
:1010E0006000109260000FBE60E071EE80E090E062
:1010F0000E94AA190E94E51E60939A0170939B01B9
:1011000080939C0190939D010E94EF1120913622C3
:101110003091372240913822509139221092C100EB
:1011200086E08093C20082E08093C00060E070E4BB
:1011300088E390E00E946E3EDA01C9010197A1099F
:10114000B109B695A79597958795292F33272093B1
:10115000C5008093C40088E98093C10060E082E10B
:101160000E94C61F61E082E10E94002082E10E948D
:101170002F209C0181E0232B09F080E064E00E9495
:10118000101D80919A0190919B01A0919C01B091BA
:101190009D018093960190939701A0939801B0933D
:1011A00099010E94F7190E94411D8091DB2381154E
:1011B00079F080E491E00E945D1A60E2CE01019630
:1011C0000E94AC1DCE0101960E94501A0E94F71990
:1011D0000E946C120E94F91C80E20E941B130E9464
:1011E000A90C44E060E08BEB91E00E94D9298111C9
:1011F00007C08FE291E00E945D1A83E00E94FC0527
:1012000041E06BEB71E087EC91E00E948C30811142
:101210000CC040E06BEB71E087EC91E00E948C30F9
:10122000811103C08CE191E0E6CF67EC71E085EEBF
:1012300091E00E944A21811103C08CE091E0DBCF54
:101240000E944F14811529F00E944F1481110E94B1
:101250005F070E94B3060E94210785E00E942C12BE
:101260000E946305FDCFE3E0F2E01382128288EE74
:1012700093E0A0E0B0E084839583A683B7838BE1FD
:1012800091E09183808341E050E26FE072E081E27F
:1012900092E20E94090AE5EEF1E0138212828FE6E3
:1012A00091E0918380831582E7ECF1E042E050E029
:1012B00060E070E04083518362837383178AEBEBB5
:1012C000F1E01582168211861386EEE9F1E01382B1
:1012D00012829183808315820895FC012FB7F894C0
:1012E0008281938144815581841B950B2FBF97FF89
:1012F00004C026813781820F931F0895CF93DF9317
:10130000FC01EB012481358182819381821793074F
:10131000A9F0C9010196A081B181A20FB31F2C9140
:101320002883268137818217930710F080E090E0B0
:101330009583848381E0DF91CF91089580E0FBCF96
:101340001F93CF93DF930F92CDB7DEB7182F28E00E
:10135000829FC0011124BE016F5F7F4F8F5E9D4D44
:101360000E947E099CE0199F90011124275D3E4F49
:10137000D901811551F01A96ED91FC9189818083F4
:101380000F90DF91CF911F9108951296ED91FC91EE
:1013900080818F7DF4CFEF92FF920F931F93CF93B5
:1013A000DF938C01CB019A01F894F801C281D381BB
:1013B0007894E480F580CE15DF0528F5C681D781C5
:1013C000CE19DF092C173D0708F4E901F801608107
:1013D00071816E0D7F1DAE010E948F3AEC0EFD1ED5
:1013E000F80126813781E216F30610F0E21AF30ABB
:1013F000F801F582E482CE01DF91CF911F910F9128
:10140000FF90EF900895EC16FD06D0F2C0E0D0E01A
:10141000F2CFFC0171836083578346831582148267
:10142000138212820895FC01228133818481958187
:101430002817390751F0848195810190F081E02DC2
:10144000E80FF91F808190E008958FEF9FEF0895D6
:10145000FC0122813381C9010196A081B181A20FD3
:10146000B31F6C93268137818217930710F080E0B9
:1014700090E0248135812817390721F093838283F6
:1014800081E0089580E008950F931F93CF93082F74
:1014900010E02CE0829FF0011124E75DFE4FA08157
:1014A000B181CC91CC710284F385E02D608128E07C
:1014B000829FC00111248F5D9D4D0E94280A8111D9
:1014C00001C0C160F801EF5CFD4D80818C2B8083F1
:1014D000CF911F910F910895EF92FF920F931F9359
:1014E000CF93DF938C019A01F894FC01848195815C
:1014F0007894E280F380E816F90628F5EC0121974C
:10150000CE19DF092C173D0708F4E901F8018081A5
:101510009181AE018E0D9F1D0E948F3AEC0EFD1E33
:10152000F80126813781E216F30610F0E21AF30A79
:10153000F801F382E282CE01DF91CF911F910F91EA
:10154000FF90EF900895C681D781CE19DF09892BCE
:10155000C9F62197D7CF1F920F920FB60F92112481
:101560000BB60F922F933F934F935F936F937F939D
:101570008F939F93AF93BF93EF93FF9380E00E946D
:10158000440AFF91EF91BF91AF919F918F917F910D
:101590006F915F914F913F912F910F900BBE0F90E4
:1015A0000FBE0F901F9018951F920F920FB60F92BB
:1015B00011240BB60F922F933F934F935F936F932A
:1015C0007F938F939F93AF93BF93EF93FF9381E0AC
:1015D0000E94440AFF91EF91BF91AF919F918F912B
:1015E0007F916F915F914F913F912F910F900BBE23
:1015F0000F900FBE0F901F9018951F920F920FB66D
:101600000F9211240BB60F922F933F934F935F933A
:101610006F937F938F939F93AF93BF93EF93FF93BA
:1016200080E00E94A009FF91EF91BF91AF919F913F
:101630008F917F916F915F914F913F912F910F907B
:101640000BBE0F900FBE0F901F9018951F920F9218
:101650000FB60F9211240BB60F922F933F934F9317
:101660005F936F937F938F939F93AF93BF93EF930A
:10167000FF9381E00E94A009FF91EF91BF91AF918C
:101680009F918F917F916F915F914F913F912F919A
:101690000F900BBE0F900FBE0F901F9018952F92BA
:1016A0003F924F925F926F927F928F929F92AF92F2
:1016B000BF92CF92DF92EF92FF920F931F93CF933F
:1016C000DF93CDB7DEB7CA55D1090FB6F894DEBFA8
:1016D0000FBECDBF7C01FC011682178210861186D9
:1016E000128613861486158671E4A72E72E0B72E33
:1016F000E2E38E2EE2E09E2EFDE26F2EF2E07F2EE0
:10170000BE016F5F7F4FC7010E94A2221816D4F05E
:10171000C65ADF4F0FB6F894DEBF0FBECDBFDF91C4
:10172000CF911F910F91FF90EF90DF90CF90BF90DE
:10173000AF909F908F907F906F905F904F903F9071
:101740002F9008958981811519F3853EC9F28E3253
:10175000B9F28C85182F187083FDD2CF9E012F5FB0
:101760003F4F690100E0F60181916F01803259F02D
:10177000083021F41F5F8EE20E94E519F601829184
:101780000E94E5191F5F0F5F0B3069F78C85887128
:10179000803121F48FE20E94E5191F5F80E21E3044
:1017A000D0F3898D9A8D282F2F711F922F939C0132
:1017B00045E0369527954A95E1F72F701F922F93B4
:1017C000892F992786958454984F9F938F93BF9222
:1017D000AF920E94003B80E20E94E5198F89988DAC
:1017E000282F2F71220F1F922F939C0165E03695B1
:1017F00027956A95E1F72F731F922F93892F86956E
:10180000869586951F928F939F928F920E94003BA0
:101810008C8588710FB6F894DEBF0FBECDBF8031C6
:1018200091F088A18F938F8D8F938E8D8F938D8D57
:101830008F937F926F920E94003B0F900F900F90BA
:101840000F900F900F900E94F7198C85887180314E
:1018500009F056CFF701228433844484558495E0FF
:1018600056944794379427949A95D1F722961FAEB1
:101870001EAE22970FE611E01FAF0EAF24961FAEEB
:101880002497A1014150510921E0B701CE01CE9624
:101890000E949426811509F450C022968EAD9FAD0A
:1018A00022979CA38BA31AA309A323968FAD2397FA
:1018B0008DA324968FAD24978EA328968CAD9DADD5
:1018C000AEADBFAD28978FA398A7A9A7BAA72C96AE
:1018D0008CAD9DADAEADBFAD2C978BA79CA7ADA732
:1018E000BEA760968CAD9DADAEADBFAD60978FA726
:1018F00098ABA9ABBAAB61968FAD61978BAB659690
:101900008CAD9DADAEADBFAD65978CAB9DABAEABB9
:10191000BFAB69968CAD9DADAEADBFAD699788AFDD
:1019200099AFAAAFBBAF6B968EAD9FAD6B979DAFD6
:101930008CAFCE0181960E944F0BA10185E0440F30
:10194000551F8A95E1F760E070E0C7010E941423FB
:10195000D7CE83E994E19093EA238093E923089515
:101960004F925F926F927F92AF92BF92CF92DF922F
:10197000EF92FF920F931F93CF93DF93CDB7DEB714
:10198000CA58D1090FB6F894DEBF0FBECDBF60E4D0
:1019900070E0CE0101960E946B1A082F811509F4A0
:1019A00033C1A2961FAE1EAEA2972FE6A22E21E053
:1019B000B22EA096BFAEAEAEA097A4961FAEA497CF
:1019C0001981111509F41CC143E050E063EF74E084
:1019D000CE0101960E94743A892B09F08CC08C814B
:1019E000082E000C990B0E944F3A892B09F4BFC1B5
:1019F0007E0125E0E20EF11C1E2DDF2CF701C190C7
:101A00007F018C2D0C2C000C990B0E944F3A892BD6
:101A100099F7C11409F4ABC121E0412F5D2D65EEAA
:101A200071E0CE01825A9F4F0E948425811109C026
:101A3000DF921F9384EE94E09F938F930E94003B6C
:101A4000DBC0A4968FADA497F02E99ECC92E94E03C
:101A5000D92E823078F08FEC94E00E945D1ACE018E
:101A6000825A9F4F0E94F623CBC01A30D1F40E94B5
:101A7000F719F02EE12C41E050E0BE016F5B7F4F83
:101A8000CE01825A9F4F0E949921019759F1CE01B0
:101A9000825A9F4F0E94F623F110B2C00E94F7199C
:101AA000AFC0E1100E94F719E12E012E000CFF08D3
:101AB000C7010E944F3A892B21F0812F0E94E5191E
:101AC0000FC0C7010E943F3A892BB9F7FF921F93BD
:101AD000DF92CF920E94003B0F900F900F900F90DB
:101AE000F12CC8CF22961FAD2297F12C1D3009F0A2
:101AF000BCCFE02EC0CF66EC74E0CE0101960E9410
:101B0000573A892B09F096C08091DE011F928F937E
:101B100084EB94E09F938F930E94003B8091E701B8
:101B20009091E80125969FAF8EAF25972396BFAE83
:101B3000AEAE23978091E90126968FAF26978091CC
:101B4000EA0127968FAF27978091EB019091EC01E6
:101B5000A091ED01B091EE012B968CAF9DAFAEAF91
:101B6000BFAF2B978091EF019091F001A091F1010F
:101B7000B091F2012F968CAF9DAFAEAFBFAF2F9754
:101B80008091F3019091F401A091F501B091F601DB
:101B900063968CAF9DAFAEAFBFAF63978091F701F7
:101BA00064968FAF64978091F8019091F901A091AC
:101BB000FA01B091FB0168968CAF9DAFAEAFBFAF9D
:101BC00068978091FC019091FD01A091FE01B09178
:101BD000FF016C968CAF9DAFAEAFBFAF6C9780919D
:101BE0000002909101026E969FAF8EAF6E97CE016C
:101BF0008F5B9F4F0E944F0B0F900F900F900F9095
:101C00008CEF97E00E945D1AC657DF4F0FB6F8942D
:101C1000DEBF0FBECDBFDF91CF911F910F91FF901F
:101C2000EF90DF90CF90BF90AF907F906F905F90DC
:101C30004F90089542E050E061EB74E0CE010196D0
:101C40000E94743A892B09F04EC08B81082E000C3B
:101C5000990B0E944F3A892B09F489C08E010C5FC1
:101C60001F4FF02EE12EF801D1908F018D2D0D2CFC
:101C7000000C990B0E944F3A892B99F7D11409F463
:101C800076C022E04F2D5E2D65EE71E0CE01825AC6
:101C90009F4F0E948425811105C0EF92FF9282EA36
:101CA00094E0CACEA4968FADA4978230C8F4CE013A
:101CB000825A9F4F0E94E2268111D1CEEF92FF926D
:101CC0008CE794E09F938F930E94003BCE01825A51
:101CD0009F4F0E94F6230F900F900F900F90BFCE52
:101CE0008AE894E0BACE67E774E0CE0101960E94DC
:101CF000573A892B41F4109234221092332281E01A
:101D00000E943A117DCF62E774E0CE0101960E94F5
:101D1000573AFE013296892BB9F461E08EE991E0E1
:101D20000E94A423811104C08EE594E00E945D1AF4
:101D300061E085EE91E00E94A423811161CF8AE4E5
:101D400094E00E945D1A5CCFCF0121912032E1F333
:101D5000143651F1BCF4133509F413C25CF41F338B
:101D6000C1F0123509F4BCC0133209F449CF86E042
:101D700098E0E7CF143509F433C21635C1F70E9455
:101D8000411D3ECF1237E1F13CF41536B1F1183662
:101D900071F780E592E0D5CF133709F4AAC0143764
:101DA00031F70E9446162CCF211501F14AE050E090
:101DB000BE016F5B7F4F0E9439392B013C01239696
:101DC000EEADFFAD23978081811106C0FFEF4F1666
:101DD00051046104710418F08FE198E0B2CF409291
:101DE00002024092352280E00E943A118091020264
:101DF0001F928F938FE394E01FCE0E94831100CF38
:101E00001F9281E08F9388EF8F931F928FE294E06F
:101E10009F938F930E94003B06EF1DE706571F4FCD
:101E20001F930F938FE194E09F938F930E94003B49
:101E300080E098EFA1E0B0E0801B910BA109B1090F
:101E4000BF93AF939F938F938FE094E09F938F9373
:101E50000E94003B88E699E08C5890409F938F93B6
:101E60008FEF93E09F938F930E94003B0E94301D61
:101E700080E091E4805091409F938F938FEE93E0A8
:101E80009F938F930E94003B83EC96E28A58914087
:101E90009F938F938FED93E09F938F930E94003BCE
:101EA0008AE891E0805091409F938F938FEC93E06C
:101EB0009F938F930E94003B0FB6F894DEBF0FBE36
:101EC000CDBF8091DC239091DD232091DE233091E2
:101ED000DF23821B930B9F938F938FEB93E0ACCD0B
:101EE00085EB93E00E945D1A0E949E190E94281EB5
:101EF00087CE809134228F93809133228F9389EA09
:101F000093E09F938F930E94003B81EA93E00E94AD
:101F10005D1A8091DA230F900F900F900F9080FF41
:101F200004C08AE993E00E945D1A8091DA2381FF60
:101F300004C083E993E00E945D1A0E94F71981E2D0
:101F400092E00E945D1A8091C6018230B9F0833020
:101F5000C1F08130C9F48DE192E00E945D1A0E94C7
:101F6000F719AE0145585F4F6AE08BEB91E00E9494
:101F7000632B811116C081E092E0E3CE89E192E00B
:101F8000ECCF84E192E0E9CF1F928F9381E192E060
:101F90009F938F930E94003B0F900F900F900F9094
:101FA000DECFEC968FADEC971F928F938CEE91E085
:101FB0009F938F930E94003BEE968FADEE97282F54
:101FC000082E000C330B3F938F93ED968FADED975A
:101FD000282F082E000C330B3F938F938EED91E04A
:101FE0009F938F930E94003BCE57DF4F8881C2584A
:101FF000D040282F082E000C330B3F938F93CF57E0
:10200000DF4F8881C158D040282F082E000C330B99
:102010003F938F93C058DF4F8881C058D040282FFE
:10202000082E000C330B3F938F93C158DF4F8881EC
:10203000CF57D040282F082E000C330B3F938F939F
:10204000EF968FADEF97282F082E000C330B3F93A0
:102050008F9389EC91E09F938F930E94003BCD5723
:10206000DF4F8881C358D0408F701F928F93CD5718
:10207000DF4F8881C358D04082958F701F928F9315
:1020800089EB91E09F938F930E94003BC957DF4FEC
:102090008881C758D0408F93CA57DF4F8881C65870
:1020A000D0408F93CB57DF4F8881C558D0408F9356
:1020B000CC57DF4F8881C458D0408F9385EA91E098
:1020C0009F938F930E94003B0FB6F894DEBF0FBE24
:1020D000CDBFC857DF4F8881C858D0408F70F0E11E
:1020E0008F9FC00111248053984FC757DF4F28811D
:1020F000C958D04022952F70820F911D9F938F93C6
:10210000C757DF4F8881C958D0408F701F928F9377
:102110008AE891E09F938F930E94003B8BEB91E0C4
:102120000E94A02B6B017C010F900F900F900F90DD
:102130000F900F90C114D104E104F10419F48AE75F
:1021400091E0FFCDAE014F5B5F4F69E08BEB91E01B
:102150000E94632B811599F3F694E794D794C79462
:10216000FF92EF92DF92CF9287E691E09F938F9359
:102170000E94003B0F900F900F900F900F900F90C8
:102180003FCD81E893E00E945D1A8091DA2348E711
:1021900053E06BE773E081700E94381C0E94F719CE
:1021A00089E693E00E945D1A8091DA234DE553E0C1
:1021B00063E673E0869581700E94381C0E94F719CF
:1021C00084E593E00E945D1A8091DA2340E453E0B5
:1021D0006CE473E082FB882780F90E94381C5ECC97
:1021E0000E948D1D5BCC0F931F93CF93DF9303E36E
:1021F00012E2C0E2D0E0CE010E94D93EF801819304
:102200008F012196C732D105B1F7DF91CF911F9190
:102210000F910895CF93DF93C3E3D2E289818F9327
:1022200088818F938EE195E09F938F930E94003B6E
:102230008A811F928F9383E195E09F938F930E94F1
:10224000003B8E818F938D818F938C818F938B81B7
:102250008F9387E095E09F938F930E94003B8DB70B
:102260009EB70E960FB6F8949EBF0FBE8DBFDF913E
:10227000CF910895CF92DF92FF920F931F93CF9348
:10228000DF93082F83E3C82E82E2D82EF12C10E0D2
:10229000C0E2D0E0CE010E94D93EF60161916F010B
:1022A000681771F0CE010E94E13ECE010E94D93E36
:1022B00091E0F6012291281301C090E0F92A11E083
:1022C0002196C732D10531F7F114A1F080910202B5
:1022D000811102C0011521F089E098E00E945D1A89
:1022E0001FEF812FDF91CF911F910F91FF90DF9012
:1022F000CF9008951115A9F3011599F387EF94E094
:102300000E945D1AEECFCF92DF92EF92FF92CF93B1
:10231000DF9300D0CDB7DEB7FC018081823771F04A
:102320008337B1F08AE295E00F900F90DF91CF9163
:10233000FF90EF90DF90CF900C945D1A0F900F906C
:10234000DF91CF91FF90EF90DF90CF900C940A1126
:102350003196CF013196DC012C912032D1F34AE045
:1023600050E0BE016F5F7F4F0E9439396B017C01E5
:10237000E981FA818081811599F08FE198E00E94CE
:102380005D1A82E495E00E945D1A0E94401C0F9045
:102390000F90DF91CF91FF90EF90DF90CF90089555
:1023A000C701B6010E94BD1C811539F38091362208
:1023B00090913722A0913822B09139228C159D0539
:1023C000AE05BF0521F3C0923622D0923722E092AB
:1023D0003822F092392281E00E943A11D8CFCF936F
:1023E0000E94F31080913522C0E08F3F21F41092BB
:1023F000352280E0C1E080930202809133229091E7
:102400003422019629F41092342210923322C1E032
:102410006091362270913722809138229091392232
:102420000E94BD1C811110C080E091EEA0E0B0E0E0
:102430008093362290933722A0933822B09339228A
:1024400081E0CF910C943A11C111FACFCF91089548
:10245000682F80E00C9400208330A9F17CF5813056
:10246000A9F18230B1F58CE695E0909343228093F8
:10247000422280919A0190919B01A0919C01B09180
:102480009D0180933D2290933E22A0933F22B093E2
:10249000402281E080933A220E9428121092412229
:1024A000E0914222F0914322E49189E1E802F001B7
:1024B0001124F0933C22E0933B220895843049F4A8
:1024C0008CE595E0D2CF85E695E0CFCF81E795E02A
:1024D000CCCF81E595E0C9CF61E080E00E94C61FC6
:1024E00061E081E00E94C61F81E00C942C122091D3
:1024F0003B2230913C2240919A0150919B01609186
:102500009C0170919D0180913D2290913E22A0916D
:102510003F22B0914022481759076A077B0708F409
:1025200045C0FA01E81BF90BCF01281B390B30938A
:102530003C2220933B22121613063CF180913A2252
:1025400091E0892780933A220E942812E09141224B
:10255000EF5FE093412280914222909143229C01BF
:102560002E0F311DE7FD3A95F901E491E11105C007
:1025700010924122FC018491E82F29E1E202F0014E
:102580001124F0933C22E0933B2280919A01909198
:102590009B01A0919C01B0919D0180933D2290935D
:1025A0003E22A0933F22B09340220895415051090A
:1025B000BA01681B790BCB01B8CFCF93C82F682F16
:1025C00081E00E94002062E08C2FCF910C94101DBE
:1025D000EF92FF920F931F93CF93DF93E82ED62FA6
:1025E000F72EC42F68E670E089EF95E20E94E23290
:1025F0006E2D89EF95E20E944F32C15060F489EF51
:1026000095E20E94F73281E0DF91CF911F910F9107
:10261000FF90EF9008950D2F1F2DF80161918F010C
:1026200089EF95E20E944F32892B19F0D02FF12EBD
:10263000E4CF80E0E9CFCF93DF930F92CDB7DEB741
:10264000682F880F770B89EF95E20E94C63284E0ED
:10265000898341E0BE016F5F7F4F8EE00E94E812E8
:10266000811107C08EEF97E00F90DF91CF910C940E
:102670005D1A0F90DF91CF910895CF93DF9300D033
:102680000F92CDB7DEB7382F562F842F2AE0622F56
:102690000E944E3E8295807F890F8983852F0E94FC
:1026A0004E3E8295807F890F8A83832F0E944E3E03
:1026B0008295807F890F8B8343E0BE016F5F7F4FE0
:1026C00080E00E94E8120F900F900F90DF91CF9161
:1026D0000895CF93DF9300D00F92CDB7DEB79C0162
:1026E000562F842F203D97E0390730F52C5640E0D7
:1026F0003AE0632F0E944E3E8295807F890F898346
:10270000852F0E944E3E8295807F890F842B8A837D
:10271000822F0E944E3E8295807F890F8B8343E0FB
:10272000BE016F5F7F4F84E00E94E8120F900F9010
:102730000F90DF91CF910895205D40E8D9CFAF92FF
:10274000BF92DF92EF92FF920F931F93CF93DF938D
:10275000D82FD62EE72EC42F68E670E089EF95E2D9
:102760000E94E2326D2F89EF95E20E944F3289EF8D
:1027700095E20E94F732AC2E0C2E000CBB08A5018E
:1027800068E670E089EF95E20E94D5328A151B0455
:10279000B9F4DD2DFE2CCD0D89EF95E20E94EE31CE
:1027A000892BC9F0CD17B9F089EF95E20E94F53178
:1027B0000D2F1F2DF80181938F01DE2FF12EECCF0D
:1027C00080E0DF91CF911F910F91FF90EF90DF900C
:1027D000BF90AF90089581E0F4CF0F931F93CF93F4
:1027E000DF93C82F162FD72F042F0E949F1381111C
:1027F0000AC0402F612F7D2F8C2FDF91CF911F9129
:102800000F910C949F13DF91CF911F910F91089519
:102810000F931F93CF93DF930F92CDB7DEB70AEFDD
:1028200010E041E0BE016F5F7F4F8FE00E94ED132B
:10283000811561F0998192FF0AC061E070E080E04B
:1028400090E00E94161F0150104059F780E00F9051
:10285000DF91CF911F910F910895CF93DF930F9246
:10286000CDB7DEB70E940814811105C080E00F903B
:10287000DF91CF91089541E0BE016F5F7F4F8EE001
:102880000E94ED13811591F389818062898341E073
:10289000BE016F5F7F4F8EE00E94E812E8CF0F937A
:1028A0001F93CF93DF9300D000D000D00F92CDB70D
:1028B000DEB747E08E010F5F1F4FB80180E00E9436
:1028C000ED1381110CC080E027960FB6F894DEBF9F
:1028D0000FBECDBFDF91CF911F910F91089587E07B
:1028E000F801A6E0B1E001900D928A95E1F747E08A
:1028F000B80180E00E94ED13811529F320910C01AD
:102900009F812913ECCF20910B019E812913E7CFE2
:1029100020910A019D812913E2CF209108019B811A
:102920002913DDCFD1CFCF92DF92EF92FF920F9399
:102930001F93CF93DF938C01EB01C0904422D09082
:102940004522E0904622F0904722C114D104E104D0
:10295000F104D1F180910C018F3FB1F18091080118
:10296000382F32953F702AE08F7090E0239F800DC2
:10297000911D1124479769F480910701382F3295F2
:102980003F708F7090E0239F800D911D1124CB9795
:10299000DCF480919A0190919B01A0919C01B091EF
:1029A0009D018C159D05AE05BF0508F4B3C0BC01A3
:1029B000CD016C197D098E099F0960362AEE7207D8
:1029C000810591050CF4ADC00E944F14282F81158C
:1029D00009F497C080919A0190919B01A0919C016C
:1029E000B0919D018093442290934522A09346226A
:1029F000B093472260E070E0CB0130910801F32EE4
:102A0000F2944FE0F4224AE03F70F49E300D11241E
:102A1000F32E30910701D32ED2945FE0D5223F7080
:102A2000D49E300D1124D32E30910601E32EE29472
:102A3000EFE0EE223F70E49E300D1124E32E2111D1
:102A400018C028EE33E040E050E00E94903EE20ED5
:102A50004CE3E41670F02CE38E2D622F0E944E3E64
:102A6000D80EE92ED21628F08D2D0E944E3EF80E7B
:102A7000D92E80910A01482F42954F705AE08F70ED
:102A8000459F800D1124482F90910B0194FB8827BE
:102A900080F981958A70292F2F70820F20910C0167
:102AA000622F62956F702F7030E0569F200D311DA0
:102AB00011246CE677E097FF02C060ED77E0260F07
:102AC000371F2C5B3740322F2227330F50E2859F70
:102AD000C0011124842B282B392BF801318320834A
:102AE0008F2D90E0982F8827990F990F990FF0E27A
:102AF000DF9E90011124822B932BE6948E299983DB
:102B00008883DF91CF911F910F91FF90EF90DF901D
:102B1000CF900895BC01CD016150710981099109DF
:102B200048CF20E06ACF0F931F93CF93DF9381119B
:102B30006EC0A09106018A2F82958F701AE0AF7047
:102B4000B0E0189FA00DB11D1124E09107018E2F58
:102B500082958F70EF70F0E0189FE00DF11D112449
:102B600060910801862F82958F706F7070E0189FBA
:102B7000600D711D112420910A01822F82958F70A2
:102B80002F7030E0189F200D311D112400910B0192
:102B900004FB882780F9C82F90E0D92FD195C195E3
:102BA000D109AE014A705527802F8F70480F511DF3
:102BB00080910C01C82FC295CF708F7090E01C9F40
:102BC000800D911D1124C0EDD7E007FD02C0CCE6B9
:102BD000D7E0BF93AF93FF93EF937F936F933F93B0
:102BE0002F935F934F938C0F9D1F9F938F9384E739
:102BF00095E09F938F930E94003B8DB79EB70E96F2
:102C00000FB6F8949EBF0FBE8DBF81E00BC0E6E00B
:102C1000F1E087E0DF011D928A95E9F70E944F14E9
:102C2000811187CFDF91CF911F910F910895CF939D
:102C3000DF93EC010E942D14811104C080E0DF912C
:102C4000CF91089563E070E080E090E00E94161F4D
:102C50000E940814811591F342E0BE016E5F7F4F20
:102C600081E10E94ED13811549F32A81922F9F770C
:102C700027FD919598839B81929596959695937053
:102C800029E1929F902D11249983D9CF8F929F9201
:102C9000AF92BF92CF92DF92EF92FF920F931F936A
:102CA000CF93DF93CDB7DEB76A970FB6F894DEBF48
:102CB0000FBECDBFFC011081143409F4B7C1ECF58F
:102CC0001D3209F40CC1E4F4111509F4D3C01B3210
:102CD00009F405C183E995E06A960FB6F894DEBF62
:102CE0000FBECDBFDF91CF911F910F91FF90EF905D
:102CF000DF90CF90BF90AF909F908F900C945D1A13
:102D000010531A3038F78E01085E1F4F4AE050E02A
:102D1000B8010E943939D62EC72EE88DF98DB080C2
:102D2000F02E012F2AE3B21609F454C03DE2B31687
:102D300009F450C08FE198E0A4C0133509F40DC226
:102D4000143509F438C231961F3421F6CF01219190
:102D50002032E1F3422F022E000C550B4053510953
:102D60004A30510528F02B3219F02D3209F0A5C157
:102D70004AE050E0BE01685E7F4F0E941E386B0142
:102D80007C01E88DF98D80818111D4CFD701C601F6
:102D900080589F4FAF4FBF4F81159140A105B1059E
:102DA00008F47AC18AEE96E06CC00E94F7196A9620
:102DB0000FB6F894DEBF0FBECDBFDF91CF911F914C
:102DC0000F91FF90EF90DF90CF90BF90AF909F90CA
:102DD0008F9008954AE050E06F2D702FCF0101963B
:102DE0000E943939162FE88DF98D8081B812A2CF53
:102DF0004AE050E06F2D702FCF0101960E943939C3
:102E0000062FE88DF98D8081811194CFED2CFC2C5B
:102E10008AE3B81239C098E1E916F10408F08ACFC4
:102E20001C330CF087CF0C330CF084CF802F002E96
:102E3000000C990B9F930F93812F012E000C990B7F
:102E40009F931F938D2D0D2C000C990B9F93DF9258
:102E500088E797E09F938F930E94003B402F612F5C
:102E60008D2D0E943D130FB6F894DEBF0FBECDBF6F
:102E7000811529F081E00E949315811196CF8EEF84
:102E800097E00E945D1A93CFC7018C569740883C0B
:102E9000910508F04FCF8FEF810F8C3008F04ACFAB
:102EA0008FEF800F8F3108F045CF802F002E000C60
:102EB000990B9F930F93812F012E000C990B9F93D9
:102EC0001F93CF92DF9281E697E09F938F930E94AA
:102ED000003B402F612FC7010E946913C4CF4AE015
:102EE00050E0BE01685E7F4FCF0101960E943939E4
:102EF0004B015C01E88DF98D008101111BCF83E44A
:102F000097E031E8831631E5930631E0A306B1047A
:102F100008F0B7CFC501B40120E13EE040E050E049
:102F20000E946E3EE22EC32E2CE330E040E050E0E3
:102F30000E946E3EF22ED62E7F936F933F932F9377
:102F4000CF92EF92812F012E000C990B9F931F932C
:102F50008AE297E09F938F930E94003B0FB6F8940C
:102F6000DEBF0FBECDBF1D3219F4E194F194D194B0
:102F70000E944F14811509F482CF90910801892F86
:102F800082958F702AE09F70829F900D1124892F67
:102F90008E0D90910701692F62956F709F70629FEF
:102FA000900D1124692F6F0D90910601492F4295C4
:102FB0004F709F70429F900D1124492F4D0D4D333E
:102FC0001CF5443C24F16D332CF5643C34F189311B
:102FD0003CF5883E44F10E943D13811509F44FCF22
:102FE000011509F447CF802F002E000C990B9F93F9
:102FF0000F9384E197E09F938F930E94003B0F9083
:103000000F900F900F9036CF4C536F5FD8CF445C2A
:103010006150D7CF6C538F5FD6CF645C8150D5CFD2
:1030200088510F5FD4CF885E0150D3CF43E150E089
:103030006FEF70E08E010F5F1F4FC8010E94AA3A28
:1030400043E1B80180E00E94ED136801811509F4A5
:1030500016CF8FE097E00E945D1A00E010E089E053
:10306000E82E87E0F82E1F930F93FF92EF920E94B5
:10307000003B0F5F1F4F0F900F900F900F90033189
:10308000110589F70E94F71943E150E0B60183E08A
:1030900097E00E94581D8BCEC194CA8E41E0BE01BC
:1030A000665E7F4F80E10E94E812811509F4E7CE49
:1030B0000E942D14811509F4E2CE41E0BE01665E46
:1030C0007F4F80E10E94ED13811509F4D8CEAA8DBF
:1030D0001A2F1195812F012E000C990BAA0BBB0BF7
:1030E000BF93AF939F931F9388ED96E09F938F9329
:1030F0000E94003BA12F110FBB0B2CE030E00E947F
:10310000C73E24E630E040E050E00E94903E862F2B
:103110000F900F900F900F900F900F9067FD81957B
:10312000482F082E000C550B5F938F933F932F93DE
:103130008AEC96E09F938F930E94003B8A8D1F92AA
:103140008F9382EC96E09F938F930E94003B0FB683
:10315000F894DEBF0FBECDBF2ACE8E01065E1F4F94
:1031600041E0B8018EE00E94ED13811509F487CE8D
:103170008A8D82FF1EC0837E88618A8F41E0B801FC
:103180008EE00E94E81241E0B8018EE00E94ED134B
:10319000811509F474CE8A8D41EB56E06AEB76E036
:1031A000002482FF0394802D0E94381C8AE996E057
:1031B00068CE8460E2CFCE0144960E941716811536
:1031C00009F45DCE8F891F928F938E891F928F9302
:1031D0008BE896E09F938F930E94003B8D891F920E
:1031E0008F938C891F928F9380E896E09F938F93A3
:1031F0000E94003B2C8930E0A4E6B0E00E94B83E7B
:103200002D89620F711D811D911DDB0129E030E0C8
:103210000E94C73E6B017C0125E030E040E050E0B9
:103220000E94903ECA01B9016058734F8F4F9F4F63
:1032300024E630E040E050E00E94903E7F936F93A0
:10324000C701B60124EF31E040E050E00E94903E1B
:10325000205E3F4F4F4F5F4F022E000C330B3F93CA
:103260002F9385E796E09F938F930E94003B6FCF4B
:10327000CF93DF930F92CDB7DEB7BE016F5F7F4F65
:1032800089E292E20E947E09811531F0898190E005
:103290000F90DF91CF9108958FEF9FEFF9CF89E2E3
:1032A00092E20C946D09CF93C62F6C2F89E192E2C4
:1032B0000E94280A8115C9F38091C9008062809319
:1032C000C90081E090E0CF91089589E292E20C94E8
:1032D000130ACF92DF92EF92FF920F931F93CF9337
:1032E000DF937B018A01C42FD12F209751F4C801AD
:1032F000DF91CF911F910F91FF90EF90DF90CF90D2
:103300000895AE01B70189E192E20E946C0A6C0156
:103310008091C90080628093C900CC19DD09EC0C52
:10332000FD1CE3CF20911B2230911C2280911D2295
:1033300090911E2228173907A9F7089520911B2282
:1033400030911C2280911D2290911E22281739074E
:10335000A9F70895CF93DF939B01AC01C9ECD0E0AE
:10336000188286E08093CA0082E08093C80060E003
:1033700070E488E390E00E946E3EDA01C901019793
:10338000A109B109B695A79597958795292F332758
:103390002093CD008093CC0088E9888360E070E0C2
:1033A0008BE49AE10E94B13A84ED92E29093D923A2
:1033B0008093D8239093D5238093D4239093D723BD
:1033C0008093D623DF91CF910895CF93C82F8A3071
:1033D00029F46DE088E492E20E9453196C2F88E48E
:1033E00092E20E94531980E090E0CF9108958AE024
:1033F0000C94E519CF93DF9389E292E20E946D0964
:10340000181619061CF0DF91CF91089588E492E216
:103410000E943819EC01892B79F3E091D423F091C3
:10342000D52323E2E33DF20720F5CF01019623E205
:10343000833D920708F59C012F5F3F4F4091D823B1
:103440005091D9234217530701F5CE30D105BCF472
:10345000C830D10554F0AE014850510925E201C0F1
:1034600026954A95EAF720FD10C087E00E94E519ED
:10347000C3CF84ED92E2DFCF24ED32E2DFCFC5315E
:10348000D10519F0CF37D10581F7C0839093D523AB
:103490008093D423B1CF0E94E51980E090E0089595
:1034A000CF93DF93EC018991811103C0DF91CF911C
:1034B00008950E94E519CE01F5CFCF93DF93EC017B
:1034C000FE0184912196811103C0DF91CF9108956F
:1034D0000E94E519F5CF2F923F924F925F926F9223
:1034E0007F928F929F92AF92BF92CF92DF92EF9294
:1034F000FF920F931F93CF93DF9300D000D00F92D2
:10350000CDB7DEB73C0169837A8383ED93E28B8389
:10351000292E2091D6233091D7233D832C832091CF
:10352000D4233091D5238C819D818217930799F400
:103530004091D8235091D923D301FA0180E06981C9
:103540007A81615071092E173F0709F03CC1D30100
:103550001C9280E06CC1AC81BD811C9184ED482E31
:1035600082E2582EE3E2A33DBE0710F411962D012E
:10357000812F012E000C990B0E943F3A892B41F0BC
:10358000812F0E94E5195092D7234092D623C1CFB4
:10359000153111F1FCF41A3009F44DC01D3009F455
:1035A0004AC0183009F44AC087E00E94E519A0918A
:1035B000D623B091D7232091D8233091D923FD0170
:1035C00091E02E173F0721F080818D3009F0C7C0B0
:1035D000892FDEC01F37E6CF2091D8233091D92321
:1035E000EC81FD8181E02E173F0721F090819D3015
:1035F00009F08BC0882E082E000C99080C811D81C3
:103600000819190962E2043D160708F41A953324D3
:103610003A94380E13140CF482C02091D8233091C0
:10362000D923C901880D991DA3E2843D9A0708F4A6
:103630004AC0C40145C00E94F719A5CF2C813D8125
:10364000F9013197245D324211F4E3EDF3E2809108
:10365000D8239091D9239C012150310962E2843D05
:10366000960711F423ED33E2E217F30709F44BC098
:1036700020812D3009F447C0A2E2E43DFA0741F170
:1036800031972081AC81BD812C938E179F0719F053
:1036900020812D3001F588E997E00E945D1A82E0D3
:1036A0002091D8233091D923482F082E000C550B98
:1036B000820F932F911DB3E2843D9B0720F0CA0136
:1036C0009A95820F931F9093D9238093D8235BCF31
:1036D000E3EDF3E2D6CFB2E2E43DFB0761F03197D0
:1036E0002C813D8142E2243D340741F021503109D3
:1036F0003D832C83C6CFE3EDF3E2F2CFA3EDB3E23B
:10370000BD83AC83BECF81E0CBCF42E2E43DF40782
:1037100019F031978F5F67CFE3EDF3E2FBCF82E2E1
:10372000043D1807A1F001501109D8018C91EC81DA
:10373000FD81808322E2E43DF20761F03197FD8351
:10374000EC8388E997E00E945D1A3A9463CF03ED19
:1037500013E2EBCF83ED93E29D838C83F2CF42E2C1
:10376000E43DF40719F031979F5F2BCFE3EDF3E2CF
:10377000FBCF5D01E1E0AE1AB10862E2A43DB607FD
:1037800011F4AB80B22CF50140814C938150D501EE
:1037900082307CF781E0891B19160CF080E0890FDC
:1037A000082E000C990BA901480F591FF3E2443D64
:1037B0005F0720F0AC015A95420F531F5093D92355
:1037C0004093D823E0CE082E001C00088617070679
:1037D0001CF490819D938F5F90819D3011F09A3001
:1037E000F1F5082E000C990B9A01280F391FE3E21E
:1037F000243D3E0720F09C013A95240F351F30935D
:10380000D9232093D8237D01FA82E9826E147F04A4
:1038100050F4D7018E917D01082E000C990B0E9467
:10382000463A892B89F7E981FA81108281E00F906D
:103830000F900F900F900F90DF91CF911F910F91EC
:10384000FF90EF90DF90CF90BF90AF909F908F90C0
:103850007F906F905F904F903F902F90089593E2EC
:10386000E33DF90710F431966ECEE4EDF2E26BCE53
:10387000972F811519F0862F0C945D1ACA01FCCF81
:103880004F925F926F927F929F92AF92BF92CF9230
:10389000DF92EF92FF920F931F93CF93DF93CDB7F9
:1038A000DEB728970FB6F894DEBF0FBECDBFECE9A8
:1038B000F7E010E000E08FE8C82E87E0D82E98E00F
:1038C000992ECE0101967C015F0194E0A90EB11CF6
:1038D00045905590659075904114510461047104B0
:1038E00091F115344CF00E94F71983E997E00E949A
:1038F0005D1A14E000E002C01115B9F37F926F92D7
:103900005F924F92DF92CF921F929F92FF92EF921F
:103910000E94293B0FB6F894DEBF0FBECDBF011544
:1039200021F080E20E94E5191F5FC7010E94501A32
:10393000F70101900020E9F73197EE19FF091E0FFA
:10394000F50101E0C1CF111614F40E94F719289671
:103950000FB6F894DEBF0FBECDBFDF91CF911F91A0
:103960000F91FF90EF90DF90CF90BF90AF909F901E
:103970007F906F905F904F9008950F931F938B01EE
:103980009C018CE997E0FC01049645915591659165
:103990007591411551056105710549F00417150729
:1039A0002607370781F781E01F910F91089580E086
:1039B000FBCFE8E4F2E21382128288EE93E0A0E00B
:1039C000B0E084839583A683B7838DE591E09183EE
:1039D000808340E450E064E572E289E292E20E9472
:1039E000090A40E450E064E972E289E192E20C9451
:1039F000090A8091DA2381608093DA2360E270E023
:103A000089EF95E20E94C63261E27DE189EF95E29D
:103A10000E94FA326BE17DE189EF95E20C94FF326E
:103A20009091DA23811521F0962B9093DA23089553
:103A300060959623FACF6091DA2389EF95E20C9492
:103A40004F32CF93DF93EC011C161D061CF0DF9163
:103A5000CF91089589EF95E20E94F5312197F4CF37
:103A600084E090E00E94F7368093DE239093DF237A
:103A70000E948D378DB79EB79093DD238093DC2312
:103A80000895E3E3F2E286818F9385818F938481A9
:103A90008F9383818F938BE898E09F938F930E94FD
:103AA000003B0F900F900F900F900F900F90089584
:103AB000CF92DF92EF92FF920F931F93CF93DF93FA
:103AC0008B017A01009711F00E945D1AC0E0D0E0EE
:103AD00086E8C82E88E0D82ECE15DF0554F0DF9199
:103AE000CF911F910F91FF90EF90DF90CF900C94AA
:103AF000F719209719F080E20E94E519F8018191E9
:103B00008F011F928F93DF92CF920E94003B2196EC
:103B10000F900F900F900F90DFCF0E94E51E28EEC0
:103B200033E040E050E00E946E3E9F938F937F937E
:103B30006F935F934F933F932F938BE798E09F93FF
:103B40008F930E94003B8DB79EB70A960FB6F894EC
:103B50009EBF0FBE8DBF08951F93CF93DF93EC01DF
:103B6000162F18828091DB2380FF14C0462F660F2A
:103B7000550B61E778E0CE010E94603AFE010190AA
:103B80000020E9F73197EC1BFD0B1E1BCE0FD11D5A
:103B9000E7FDDA958091DB2381FF15C0412F012ECF
:103BA000000C550B6AE678E0CE010E94603AFE01F7
:103BB00001900020E9F73197EC1BFD0B1E1BCE0F87
:103BC000D11DE7FDDA958091DB2382FF15C0412FDF
:103BD000012E000C550B6FE578E0CE010E94603A93
:103BE000FE0101900020E9F73197EC1BFD0B1E1B35
:103BF000CE0FD11DE7FDDA958091DB2383FF15C041
:103C0000412F012E000C550B65E578E0CE010E9496
:103C1000603AFE0101900020E9F73197EC1BFD0BA3
:103C20001E1BCE0FD11DE7FDDA958091DB2384FFAB
:103C30000BC0412F110F550B6FE478E0CE01DF91DF
:103C4000CF911F910C94603ADF91CF911F9108950D
:103C5000F89488E198E00FB6F894A89580936000F6
:103C60000FBE90936000FFCFAF92BF92CF92DF92D2
:103C7000EF92FF920F931F93CF93DF936C01EB01B1
:103C8000E42E022F8EEF820F833270F018823FEF06
:103C9000832FDF91CF911F910F91FF90EF90DF90D5
:103CA000CF90BF90AF9008955B0130E00E2C000CD8
:103CB000FF0821E0E21AF108002E000C110B032E80
:103CC000001C00083E150F040CF7C601B8010E9445
:103CD0005A3EFC01E65DF74FE491D501ED933F5F5D
:103CE000C016D106B8F4F5011182832F37FF02C048
:103CF00081E0830F8595FE01E30FF11D37FDFA95F5
:103D00008C0F982F9C1B19161CF6988122912993D1
:103D10009083F7CF5D016B01D2CF08950E944F1FB2
:103D20000E948D1E0E945B08C0E0D0E00E946305E7
:103D30002097E1F30E940000F9CF1F921FB61F9257
:103D400011242F933F938F939F93AF93BF938091B1
:103D5000E1239091E223A091E323B091E4233091F9
:103D6000E02325E1230F2D3750F50196A11DB11D4C
:103D70002093E0238093E1239093E223A093E32315
:103D8000B093E4238091E5239091E623A091E7236B
:103D9000B091E8230196A11DB11D8093E523909376
:103DA000E623A093E723B093E823BF91AF919F91BF
:103DB0008F913F912F911F901FBE1F90189528E95A
:103DC000230F0296A11DB11DD3CF2FB7F894609198
:103DD000E1237091E2238091E3239091E4232FBFAC
:103DE00008953FB7F8948091E5239091E623A09140
:103DF000E723B091E82326B5A89B05C02F3F19F013
:103E00000196A11DB11D3FBFBA2FA92F982F88275A
:103E1000BC01CD01620F711D811D911D42E0660F35
:103E2000771F881F991F4A95D1F708958F929F9207
:103E3000AF92BF92CF92DF92EF92FF926B017C0123
:103E40000E94F11E4B015C01C114D104E104F10494
:103E5000E9F00E94971F0E94F11E681979098A09EA
:103E60009B09683E73408105910570F321E0C21AF9
:103E7000D108E108F10888EE880E83E0981EA11CA5
:103E8000B11CC114D104E104F10429F7FF90EF90B3
:103E9000DF90CF90BF90AF909F908F9008957894CF
:103EA00084B5826084BD84B5816084BD85B582603F
:103EB00085BD85B5816085BDEEE6F0E080818160DD
:103EC0008083E1E8F0E010828081826080838081DD
:103ED00081608083E0E8F0E0808181608083E1EBB5
:103EE000F0E0808184608083E0EBF0E0808181609D
:103EF0008083E1E9F0E0808182608083808181605D
:103F00008083E0E9F0E0808181608083EAE7F0E08F
:103F100080818460808380818260808380818E7FC5
:103F200080838081806880831092C1000895089505
:103F300081508A3030F5E82FF0E0EF50F14C0C94CE
:103F4000AF3E809180008F778093800008958091AC
:103F500080008F7DF9CF84B58F7784BD089584B5B7
:103F60008F7DFBCF8091B0008F778093B000089554
:103F70008091B0008F7DF9CF809190008F778093F2
:103F800090000895809190008F7DF9CFCF93DF93BB
:103F900090E0FC01E750F74F2491875E964FFC01BB
:103FA00084918115C9F090E0880F991FFC01E35BB3
:103FB000F64FA591B591FC01ED5BF64FC591D591FA
:103FC0009FB761110CC0F8948C91209582238C933B
:103FD0008881282328839FBFDF91CF910895623085
:103FE00051F4F8943C91822F809583238C9388819F
:103FF000822B8883F0CFF8948C91822B8C93EBCF1B
:104000001F93CF93DF93162F282F30E0F901E7524B
:10401000F74F8491F901E750F74FD491F901E75E2A
:10402000F64FC491C115A1F081110E94981FEC2F89
:10403000F0E0EE0FFF1FED5BF64FA591B5919FB736
:10404000F8948C91111108C0D095D823DC939FBFB0
:10405000DF91CF911F9108958D2B8C93F8CFCF9343
:10406000DF93282F30E0F901E752F74F8491F901EF
:10407000E750F74FD491F901E75EF64FC491C115AF
:1040800081F081110E94981FEC2FF0E0EE0FFF1FCE
:10409000E75CF64FA591B591EC91ED2381E0E1113C
:1040A00001C080E090E0DF91CF9108950895CF9313
:1040B000DF93EC019C012A5F3F4F41E050E060E05C
:1040C00070E08B8D9C8D0E94222F8115B9F08F8915
:1040D000988DA98DBA8D892B8A2B8B2B59F48C81C5
:1040E0004E815F81688579854F8B588F698F7A8F74
:1040F00080688C838C8180628C8381E0DF91CF919A
:1041000008958F929F92AF92BF92CF92DF92EF92DB
:10411000FF921F93CF93DF93EC010E945720182F3B
:1041200081110EC010E0812FDF91CF911F91FF9080
:10413000EF90DF90CF90BF90AF909F908F900895B9
:10414000EB8DFC8DCE80DF80E884F98482E0C81A94
:10415000D108E108F108858504C0CC0CDD1CEE1CFB
:10416000FF1C8A95D2F786859785A089B189C80EEC
:10417000D91EEA1EFB1E848146015701880E911C40
:10418000A11CB11CC814D904EA04FB04D9F4EB8DBA
:10419000FC8D858540E052E060E070E004C0440F93
:1041A000551F661F771F8A95D2F78B899C89AD8929
:1041B000BE89840F951FA61FB71F8B8B9C8BAD8B61
:1041C000BE8BB1CF81E0881A9108A108B108C50162
:1041D000B4010E94572D8111D5CFA4CFCF93DF9387
:1041E000EC01462F6E857F85888999890E941B2D59
:1041F000811551F08A8920E2829FC00111248B50E1
:104200009C4DDF91CF91089580E090E0FACFEF923E
:10421000FF920F931F93CF93DF937C018B014BE0B1
:1042200050E060E270E0C8010E94AA3A20E037E066
:10423000E701999191110DC081E0F80190819032D0
:1042400009F480E0DF91CF911F910F91FF90EF90E3
:104250000895E7E5F9E09E3249F43A3091F328E019
:104260003AE07E01E5CF3196981759F38491811198
:10427000FACF321738F34FED490F4E3518F78FE963
:10428000890F8A3108F49052F801E20FF11D9083F2
:104290002F5FE7CF0F931F93CF93DF93EC018B0139
:1042A0008D81811531F080E0DF91CF911F910F91C9
:1042B0000895FB018789803139F582E08D831F8A5B
:1042C000188E198E1A8E808D918DA0E0B0E025E0B9
:1042D000880F991FAA1FBB1F2A95D1F78B8B9C8B28
:1042E000AD8BBE8B1C8F0B8F81E08C831E821F8257
:1042F000188619861A861B861C861D861E861F86B2
:10430000188A198A1A8AD0CF803269F683E08D83A1
:10431000428D538D648D758D4F8B588F698F7A8F39
:104320009E012D5E3F4FC8010E94002E8111DACF01
:10433000BACF2F923F924F925F926F927F928F925D
:104340009F92AF92BF92CF92DF92EF92FF920F9324
:104350001F93CF93DF93EC016B012A018D818111B3
:1043600015C08FEF9FEFDF91CF911F910F91FF90BD
:10437000EF90DF90CF90BF90AF909F908F907F9005
:104380006F905F904F903F902F9008958C8180FFA9
:10439000E8CF4B895C896D897E898A859B85AC8550
:1043A000BD858A019B01081B190B2A0B3B0B0415C9
:1043B00015052105310518F42A01481A590A420148
:1043C000212C32E0332E8114910411F4C201CBCFA1
:1043D0004A855B856C857D855A0121E0B2228B8DF3
:1043E0009C8D7A018B0129E016950795F794E79447
:1043F0002A95D1F72D812230F1F5FC01828D938D24
:10440000A48DB58DBC01CD016E0D7F1D801F911F48
:1044100031016A187B088614970408F434012C8152
:1044200026FD04C06114B2E07B0671F400910D0119
:1044300010910E0120910F013091100106171707FE
:104440002807390709F05AC040E00E941B2D81154A
:1044500009F487CF95012B503C4DA901460D571DFE
:10446000F601C9018417950709F067C0C21AD30A7B
:10447000C80ED91E53C0DC0114962C912150E222A3
:10448000A114B10471F4E1100CC0452B462B472B4D
:1044900049F58F89988DA98DBA8D8E839F83A887C2
:1044A000B987EB8DFC8D8E819F81A885B985BC0174
:1044B000CD016250710981099109258504C0660FFB
:1044C000771F881F991F2A95D2F70685178520899F
:1044D0003189600F711F821F931F6E0D711D811D29
:1044E000911D96CF4E815F81688579859E012A5FF7
:1044F0003F4F0E947F2D8111D4CF33CF76018301AE
:104500009501AB01BC018091F3239091F4230E94AB
:10451000C72A811509F425CFC60CD71C8A859B852F
:10452000AC85BD85860D971DA11DB11D8A879B8712
:10453000AC87BD878618970846CFDC016D91CD0109
:10454000619390CF0F931F93CF93DF93EC018B0177
:104550008D81823060F08A859B85AC85BD858F71A9
:104560009927AA27BB27892B8A2B8B2B69F08FEFE2
:1045700015C0F8019081911579F0953E29F09E3291
:1045800019F0938593FF0AC040E250E0B801CE01D4
:104590000E949921803269F3880F880BDF91CF91B7
:1045A0001F910F910895FF920F931F93CF93DF9365
:1045B0000F92CDB7DEB78C01FC0185818230C0F04F
:1045C00082859385A485B58525E0B695A7959795B1
:1045D00087952A95D1F7F82FFF70FF2E41E050E024
:1045E000BE016F5F7F4FC8010E949921019749F07A
:1045F00080E090E00F90DF91CF911F910F91FF909D
:104600000895F80182859385A485B5854F96A11DEF
:10461000B11D82879387A487B587F0E2FF9EC00112
:1046200011248B509C4DE6CF8F929F92AF92BF92F8
:10463000CF92DF92EF92FF920F931F93CF93DF936E
:10464000EC014A015B018D8181110EC080E0DF9198
:10465000CF911F910F91FF90EF90DF90CF90BF907F
:10466000AF909F908F9008954B895C896D897E896A
:10467000481559056A057B0548F3823049F08114D5
:104680009104A104B10451F41E821F821886198678
:104690008A869B86AC86BD8681E0D9CF0A851B853C
:1046A0002C853D85EB8DFC8D858590E00996B901C3
:1046B000A8014150510961097109082E04C076957D
:1046C0006795579547950A94D2F775016401E1E023
:1046D000CE1AD108E108F10804C0F694E794D79403
:1046E000C7948A95D2F7C416D506E606F70620F0D9
:1046F000012B022B032B61F48F89988DA98DBA8D24
:104700008E839F83A887B9878E010A5F1F4F16C0CB
:10471000C41AD50AE60AF70AF7CF4E815F81688589
:10472000798598018B8D9C8D0E947F2D91E0C91A0F
:10473000D108E108F108811509F488CFC114D1042A
:10474000E104F10451F7A4CFFF920F931F93CF938D
:10475000DF93EC01F62E8D81811509F440C08C8128
:1047600087FF30C061E0CE010E94EE208C01892BD2
:10477000B1F18D81823048F48B899C89AD89BE89E5
:10478000F801848F958FA68FB78F8F89988DA98D0B
:10479000BA8DF801938F828FB58BA48BE091E923BA
:1047A000F091EA23309759F0B8016A5E7F4FC80153
:1047B00048960995F801808D918D938B828B8C8121
:1047C0008F778C83F11003C08C818F7E8C838F2D2B
:1047D000DF91CF911F910F91FF900C94F12C80E00D
:1047E000DF91CF911F910F91FF900895CF93DF93A9
:1047F000EC0161E00E94A423811511F01D8281E08B
:10480000DF91CF910895CF93DF93EC018D818130BB
:1048100069F48C8181FF0AC082FD0DC08091F32371
:104820009091F4230E94B02C8115C1F080E090E0BB
:10483000DF91CF9108954B895C896D897E898A8546
:104840009B85AC85BD8584179507A607B70731F30F
:10485000CE010E9414238111E1CFE8CF8C8185FF26
:1048600008C060E0CE010E94A4238C818F7D8C83E0
:10487000DDCF4091EE235091EF236091F0237091B2
:10488000F123452B462B472B21F080E00E94CC2CB6
:10489000CDCF80618C832A853B85317080E092E0AA
:1048A000821B930BC5CF6F927F928F929F92AF9294
:1048B000BF92CF92DF92EF92FF920F931F93CF930D
:1048C000DF9300D000D0CDB7DEB77C014A015B0199
:1048D000FC0185818130A1F080E00F900F900F9056
:1048E0000F90DF91CF911F910F91FF90EF90DF908C
:1048F000CF90BF90AF909F908F907F906F900895D2
:10490000948191FFE9CF4389548965897689481557
:1049100059056A057B0500F3452B462B472BE9F229
:1049200062847384C484D584B501A401C7010E9444
:104930001423811589F2F701838D948D81149104DC
:10494000A104B104D1F54789508D618D728D0E940B
:104950002E30811509F2F701178A108E118E128EF2
:10496000F701838A948AA58AB68A848180688483C1
:1049700061E0C7010E94A423811509F4ADCFA30112
:10498000B60184169506A606B70610F4B501A40173
:10499000C7010F900F900F900F90DF91CF911F9153
:1049A0000F91FF90EF90DF90CF90BF90AF909F90CE
:1049B0008F907F906F900C9414234681578160856F
:1049C00071859E012F5F3F4F0E947F2D811509F455
:1049D00083CFF701838D948D49815A816B817C81CE
:1049E000FC0127892031F9F408EF1FEF20E030E0C7
:1049F000401751076207730708F0B2CF0E942E30AC
:104A0000811509F469CFF701468157816085718569
:104A10000FEF1FEF2FEF3FE0838D948D0E94832EC9
:104A200081119ECF59CF08EF1FEF2FEF3FE0E0CF6E
:104A30001F93CF93DF93EC01142F80E2689FF00166
:104A40001124EB50FC4D83858171811549F0842F31
:104A50008274811529F080E0DF91CF911F91089534
:104A60006A8B80910D0190910E01A0910F01B09180
:104A700010018E879F87A88BB98B4489558960E088
:104A800070E0BA0155274427828D938DA0E0B0E0F5
:104A9000482B592B6A2B7B2B4F8B588F698F7A8F22
:104AA00083858871811121C0848D958DA68DB78DE8
:104AB0008B8B9C8BAD8BBE8B81E08D83812F8F7018
:104AC0008C831E821F82188619861A861B861C8676
:104AD0001D8681E016FFC0CF40E050E0BA01CE0154
:104AE000DF91CF911F910C945324803109F0B3CF03
:104AF0009E012D5E3F4F8B8D9C8D0E94002E811557
:104B000009F4A9CF84E0D9CF4F925F926F927F9240
:104B10008F929F92AF92BF92CF92DF92EF92FF92CD
:104B20000F931F93CF93DF93CDB7DEB72B970FB6BD
:104B3000F894DEBF0FBECDBF7C016B01CA01B22E5F
:104B4000D7011596AC90A114C1F080E02B960FB65A
:104B5000F894DEBF0FBECDBFDF91CF911F910F91B3
:104B6000FF90EF90DF90CF90BF90AF909F908F908D
:104B70007F906F905F904F900895FE0131964F01A6
:104B8000BF010E940721582E8115F9F2D6015B96CC
:104B90008D919C915C97F701948F838F16961D924F
:104BA0001D921D921C921997F60112861386148687
:104BB0001586F60182859385A485B5854389548938
:104BC0006589768984179507A607B70770F525E0EC
:104BD000B695A795979587952A95D1F7F82FFF70E9
:104BE0004F2EC6010E94D3223C01009709F4ADCF9D
:104BF000DC018C91811509F493C0853E09F05FC0FA
:104C0000A11071C0F701428A80910D0190910E01AF
:104C1000A0910F01B091100186879787A08BB18B6F
:104C2000D3018C9181115FC0A52C8B2D82718231B3
:104C300009F08BCFA11409F458C061E0C7010E94AC
:104C4000EE208C01892B09F480CF85E1F8013B9699
:104C5000DF011D928A95E9F78BE0F401D8010190FC
:104C60000D928A95E1F7E091E923F091EA233097DC
:104C700009F44CC0B801625F7F4FC80140960995A6
:104C8000D80150968D919C91519753969C938E93F9
:104C9000529759969C938E9358971E968D919C91FE
:104CA0001F9757969C938E93569781E00E94F12C04
:104CB000811509F44ACF4B2DF701628910C04BE0F2
:104CC00050E0B301C4010E94823A892B09F071CFF0
:104CD0008B2D80734B2D642D803309F436CFC701A3
:104CE0000E94182533CFA52C64CFD60115968C9140
:104CF000823009F42ACFC6010E948120811509F46F
:104D000024CFF701128A05EF13E29FCF81E298E2E8
:104D1000F801918B808B80E098E097878687B0CFF1
:104D2000A11409F46FCF80CFAF92BF92CF92DF92E0
:104D3000FF920F931F93CF93DF938C016B01EA01D6
:104D4000F22EFC018581811132C0822F8073803365
:104D500071F1FB01838D948DF801948F838F85E031
:104D6000440F551F8A95E1F760E070E0C6010E948C
:104D700014238115E1F0C6010E94D3220097B9F0F7
:104D8000FC018081811599F0853E89F08E3279F0A1
:104D90006C2F6F704F2DC801DF91CF911F910F9134
:104DA000FF90DF90CF90BF90AF900C94182580E0DB
:104DB000DF91CF911F910F91FF90DF90CF90BF9027
:104DC000AF9008950F931F93CF93DF93EC0140E0D2
:104DD00050E0BA010E945324811591F061E0CE01A8
:104DE0000E94EE208C01892B59F085EEF80180831A
:104DF0001D8281E0DF91CF911F910F910C94F12CD6
:104E000080E0DF91CF911F910F9108952F923F92F3
:104E10004F925F926F927F928F929F92AF92BF92CA
:104E2000CF92DF92EF92FF920F931F93CF93DF9376
:104E3000CDB7DEB72B970FB6F894DEBF0FBECDBF50
:104E40007C016B011A01DC0115968C91159781305C
:104E500009F05EC014961C9111FF5AC012FD44C0A7
:104E60001295139511701B874101D7011A960D9168
:104E70001D912D913C911D978114910409F052C010
:104E800014968C91149753964D915D916D917C91F0
:104E90005697401751076207730708F05EC1F70184
:104EA000038B148B258B368B80688483F701848178
:104EB00083FD62C1C1012B960FB6F894DEBF0FBE11
:104EC000CDBFDF91CF911F910F91FF90EF90DF90B9
:104ED000CF90BF90AF909F908F907F906F905F909A
:104EE0004F903F902F900895F70143895489658929
:104EF000768982859385A485B585481759076A0701
:104F00007B0709F4ADCFC7010E9414238111A8CFFC
:104F100081E090E0D70113969C938E93129780E0E6
:104F200090E0C9CFD7015B968D919C915C97FC0175
:104F300074807A94B901A80129E076956795579510
:104F400047952A95D1F77422117071101FC0011571
:104F50001105E1F416964D915D916D917C91199733
:104F6000411551056105710509F07AC057968D917B
:104F70009D910D90BC91A02D0097A105B10509F060
:104F800094C0C7010E945720811511F2A12C82E024
:104F9000B82EA01AB10A8A149B0408F45401D70150
:104FA0005B964D915C915C9716968D919D910D90BD
:104FB000BC91A02D0297A109B109FA01258504C071
:104FC000880F991FAA1FBB1F2A95D2F746855785C0
:104FD00060897189840F951FA61FB71F9C01AD01C1
:104FE000270D311D411D511D29013A01A11432E047
:104FF000B30609F068C080910D0190910E01A09157
:105000000F01B091100184159505A605B70549F467
:105010004FEF40930D0140930E0140930F014093D9
:1050200010010B859601B301A2018091F3239091A9
:10503000F4230E94522C811509F46ACF5EEFD51A31
:105040008A189B08F70182859385A485B5858A0D0A
:105050009B1DA11DB11D82879387A487B58705CFAE
:105060009E012F5F3F4F0E947F2D811509F457CF7E
:1050700089819A81AB81BC81F701238D348DF9013F
:1050800027892031C1F428EF3FEF40E050E02F8323
:10509000388749875A872F81388549855A858217ED
:1050A0009307A407B50708F06CCFF70186839783B1
:1050B000A087B1876BCF38EF3F834FEF4887498791
:1050C0005FE05A87E8CF01151105A1F5D7011A96BF
:1050D0004D915D916D917C911D9753968D919D9110
:1050E0000D90BC91A02D481759076A077B0710F156
:1050F00081E00E94F12C811509F40ACF40920D0144
:1051000050920E0160920F01709210018091F22373
:1051100081608093F2230B501C4DC8018A0D9B1DAA
:10512000F80196018E179F0769F4C01AD10AC80EBC
:10513000D91E86CF41E0C301B2010E941B2D81110F
:10514000EACFE6CE2D833E83AD81BE812D91BE8315
:10515000AD8321932D813E81E5CF2091E9233091CC
:10516000EA23232B09F4A2CE2114310409F49ECEA4
:10517000806814968C939ACE61E0C7010E94A423A4
:10518000811198CEC5CECF93DF930F92CDB7DEB706
:10519000698341E050E0BE016F5F7F4F0E940627A8
:1051A0000F90DF91CF9108952091F725211581F07F
:1051B0003FB7F8942091F725213069F42DB320935F
:1051C000F5254DB32091F625209524232DBB3FBF17
:1051D0008CBD9DBD08953093F525FACF8EBD00009E
:1051E0000DB407FEFDCF8EB508958FEF0C94EE2819
:1051F0008091F725811561F09FB7F8948091F5258E
:105200002091F725213019F48DBB9FBF08958FBFE2
:10521000089561E0FC0184810E9400208091EB23CD
:10522000811521F01092EB230C94F8280895CF9368
:10523000DF93EC018091EB23811109C081E0809321
:10524000EB238091EC239091ED230E94D42860E021
:105250008C81DF91CF910C940020CF93DF93EC01F0
:105260008E81811105C0DF91CF9108950E94F528AC
:105270008F8198859C012F5F3F4F38872F83823025
:105280009240A0F3CE010E9409291E82ECCFFC01BE
:10529000673020F086E1858380E008956330D9F09F
:1052A00060F4613089F080E5623009F481E5809333
:1052B000EC2381E08093ED230CC0643071F082E533
:1052C000653019F083E501C080E58093EC231092EE
:1052D000ED2381E0089581E5F8CF82E5E8CF0F93D3
:1052E0001F93CF93DF93EB010E94E51E8B010E9479
:1052F000F5288F3F69F00E94E51E601B710B6C174B
:105300007D07A8F380E0DF91CF911F910F91089561
:1053100081E0F9CF8F929F92AF92BF92EF92FF926E
:105320001F93CF93DF93EC01162F49015A010E947E
:105330002D29CE010E9417296CE271E0CE010E9456
:105340006F29812F80640E94EE2888E1E82EF12CDD
:10535000D501C4010E2C04C0B695A79597958795E5
:105360000A94D2F70E94EE2888E0E81AF10888EF44
:10537000E8168FEFF80661F785E9111521F08FEF38
:10538000183009F487E80E94EE2810E00E94F52802
:105390008A8787FF04C01F3F11F01F5FF7CFDF919F
:1053A000CF911F91FF90EF90BF90AF909F908F9003
:1053B00008958F929F92AF92BF92EF92FF920F93B8
:1053C0001F93CF93DF93EC01062F1B8619861E8255
:1053D0001D824C830E94E51E7B0161E08C810E944E
:1053E000C61F61E08C810E9400200E94B73182E5D7
:1053F0008093EC231092ED238091EC239091ED2388
:105400000E94D4281AE08FEF0E94EE281A95D9F74F
:105410000E94F828CE010E94172920E030E0A9015F
:1054200060E0CE010E948A29182F8A87813009F016
:105430005FC02AEA31E040E050E068E0CE010E941F
:105440008A2982FD0AC014E00E94F5288A871A95ED
:10545000D9F78A3A09F071C012E01B87812C912C90
:1054600054018394123019F0812C912C54018EE157
:10547000880C991CAA1CBB1C8A95D1F720E030E04F
:10548000A90167E3CE010E948A29A501940169E27E
:10549000CE010E948A298A87811144C08B8582307F
:1054A000B1F420E030E0A9016AE3CE010E948A292C
:1054B000811145C00E94F528807C803C11F483E076
:1054C0008B870E94F5280E94F5280E94F528CE01BE
:1054D0000E940929602FCE01DF91CF911F910F917A
:1054E000FF90EF90BF90AF909F908F900C944729C2
:1054F0000E94E51E6E197F09603D774009F008F4AF
:105500008CCF81E08D83CE010E94092980E0DF915C
:10551000CF911F910F91FF90EF90BF90AF909F9010
:105520008F9008950E94E51E6E197F09603D7740B7
:1055300009F008F4A3CF88E0E5CF82E0E3CF86E06E
:10554000E1CF0F931F93CF93DF93EC010E94E51EF1
:105550008B010E94F5288A878F3F69F08E3FA9F062
:105560008DE08D83CE010E94092980E0DF91CF91EB
:105570001F910F9108950E94E51E601B710B6C3204
:10558000714039F330F38FE0ECCF81E0EFCF4F92F1
:105590005F926F927F92AF92BF92CF92DF92EF9223
:1055A000FF920F931F93CF93DF93EC012A013B01EE
:1055B000590168010115110509F45DC0C801820F88
:1055C000931F8130924048F58E81811571F088815A
:1055D0009981AA81BB8184159505A605B70529F493
:1055E0008F819885A816B90640F5488259826A824B
:1055F0007B828B85833039F089E0440C551C661C16
:10560000771C8A95D1F7A301920161E1CE010E9436
:105610008A29811539F083E08D83CE010E94092902
:1056200080E02AC0CE010E94A12A8115B1F318861C
:105630001F8281E08E8380E090E08A159B0558F1FF
:105640005701EC0CFD1C0E94F528F50181935F01C8
:10565000EE15FF05C1F78F819885C80ED91ED88633
:10566000CF828985811521F0C114F2E0DF0618F0A0
:10567000CE010E942D2981E0DF91CF911F910F91E2
:10568000FF90EF90DF90CF90BF90AF907F906F90A2
:105690005F904F9008950E94F5288F81988501961C
:1056A00098878F83CACFEF92FF920F931F93790150
:1056B00000E012E020E030E00E94C72A1F910F9125
:1056C000FF90EF900895CF92DF92EF92FF920F93A9
:1056D0001F93CF93DF93EC01D42EE52E20E030E032
:1056E000A9010E948A29811539F08EE08D83CE01AF
:1056F0000E940929F12C1AC0CE010E94A12AF82E7D
:105700008115A9F30D2D1E2DC80140966C010E9434
:10571000F528F80181938F01EC15FD05C1F70E9472
:10572000F5280E94F528CE010E9409298F2DDF91CE
:10573000CF911F910F91FF90EF90DF90CF90089540
:105740000F931F93CF93DF93CDB7DEB760970FB65C
:10575000F894DEBF0FBECDBF8C01AE014F5F5F4F2F
:1057600069E00E94632B811509F467C08981803448
:10577000C8F56F81637070E0762F6627770F770F1B
:10578000888524E0829FC0011124682B792B8985AC
:105790008295869586958370682B6F5F7F4F80E03A
:1057A00090E02A852370220F3B8537FB332730F9A1
:1057B000232B3E813F70230F3327331F275031099E
:1057C00004C0660F771F881F991F2A95D2F760962D
:1057D0000FB6F894DEBF0FBECDBFDF91CF911F9102
:1057E0000F910895807C803429F5688566956695CB
:1057F00070E080E090E0CB01772766272A85622B56
:10580000098510E0102F0027012E000C220B330B0E
:10581000062B172B282B392BC901B8016F5F7F4F3F
:105820008F4F9F4F4AE0660F771F881F991F4A9539
:10583000D1F7CDCF89E0F801858360E070E0CB013E
:10584000C6CFEF92FF920F931F93CF93DF938C01FC
:10585000862F7A010E94EE28E701C7019E5F7C0136
:1058600089910E94EE28CE15DF05D1F78FEF0E94B7
:10587000EE288FEF0E94EE280E94F528F80182871B
:105880008F71853069F081E18583C8010E94092903
:1058900080E0DF91CF911F910F91FF90EF900895DD
:1058A00081E0F7CFBF92CF92DF92EF92FF920F93FA
:1058B0001F93CF93DF93EC016A017B01B22E132F6C
:1058C00082E1C114D104E104F10499F08B858330A5
:1058D00039F089E0CC0CDD1CEE1CFF1C8A95D1F759
:1058E000A701960168E1CE010E948A29811539F04D
:1058F00084E08D83CE010E940929F12C26C04B2D16
:10590000512F6EEFCE010E94212CF82E811591F3BC
:105910000115C1F068E572E0CE010E946F29811186
:1059200002C085E1E6CF20E030E0A9016DE0CE01C4
:105930000E948A29811511F084E1DBCF0E94F528AD
:105940008111FACFCE010E9409298F2DDF91CF91CD
:105950001F910F91FF90EF90DF90CF90BF9008952F
:105960001F93CF93DF93D82FC92F0E9417290E942E
:10597000F528182F8D2F9C2F0E94092981E01F3FA9
:1059800009F480E0DF91CF911F910895ECEEF3E2EE
:1059900080E58083118208950F93082F4091EE23B4
:1059A0005091EF236091F0237091F123411551053F
:1059B0006105710519F481E00F91089525EF33E237
:1059C0008091F3239091F4230E94522C8115A1F32E
:1059D0001092EE231092EF231092F0231092F123F5
:1059E000EACF0F93CF93C82F8091F223811104C087
:1059F00081E0CF910F91089540910D0150910E01DA
:105A000060910F01709110010C2F25EF33E280910E
:105A1000F3239091F4230E94522C811102C080E064
:105A2000E8CFC11529F38C2F0E94CC2C8115B9F336
:105A30001092F223DDCFCF92DF92EF92FF92CF93BD
:105A40006B017C01C42F80910D0190910E01A091FA
:105A50000F01B09110018C159D05AE05BF0501F138
:105A600081E00E94F12C811107C080E0CF91FF906E
:105A7000EF90DF90CF90089525EF33E2B701A601B4
:105A80008091F3239091F4230E94532B811569F3A5
:105A9000C0920D01D0920E01E0920F01F092100120
:105AA0004091F2234C2B4093F22381E0DFCF0F9300
:105AB0001F93CF93DF938B01D82FC92F81E00E94D2
:105AC000F12C8115B9F0E5EFF3E220E032E0DF01DF
:105AD000A9011D9241505040E1F700930D01109330
